:100000000C94E9000C948A020C9406010C940601ED
:100010000C9406010C9406010C9406010C94060144
:100020000C9406010C9406010C9406010C94060134
:100030000C9406010C9406010C9406010C94060124
:100040000C9406010C94330A0C9406010C94E804F9
:100050000C94060109022200010100C00A090400F3
:100060000001030000000921010100012216000720
:100070000581030800641201100100000008091244
:1000800033330001010200012003440069006700CE
:100090006900740061006C006E00650074007A00F5
:1000A0007400650069006C0016034C00610062007A
:1000B00043006F006E006E0065006300740004036F
:1000C00009040600FF0901A101150026FF007508BB
:1000D00095800900B20201C000407A10F35A00A0D6
:1000E000724E18090010A5D4E80000E87648170001
:1000F00000E40B54020000CA9A3B000000E1F50541
:10010000000080969800000040420F000000A0868A
:1001100001000000102700000000E80300000000BC
:100120006400000000000A00000000000100000060
:1001300000002C76D888DC674F0823DFC1DFAE597A
:10014000E1B1B796E5E3E453C63AE651997696E80D
:10015000E6C28426EB898C9B62ED407C6FFCEFBC91
:100160009C9F40F2BAA56FA5F490055A2AF75C93BC
:100170006B6CF9676DC11BFCE0E40D47FEF520E6F2
:10018000B500D0ED902E0300943577050080841ED5
:10019000080000204E0A000000C80C333333330F30
:1001A000986E12831141EF8D2114893BE65516CFCD
:1001B000FEE6DB18D1844B381BF77C1D901DA4BBD9
:1001C000E424203284725E228100C9F124ECA1E58E
:1001D0003D2711241FBECFE5D4E0DEBFCDBF11E027
:1001E000A0E6B0E0E6E0FFE102C005900D92A0318C
:1001F000B107D9F711E0A0E1B1E001C01D92A0372D
:10020000B107E1F70E948B0A0C94810F0C94000057
:10021000CF93C62F2091230124FF07C030912401E2
:1002200028E823272093240103C02AE520932301F3
:10023000DC01E5E2F1E09C2F9E0F8D918193892FE7
:100240008E1B1816D4F36C2F85E291E00E94860273
:10025000CC5FC0932301CF910895CF93DF9360913A
:100260003401635067FDC7C080913101CCE0D0E01C
:10027000C81BD109C85CDE4F809130018D3209F076
:10028000A8C0683009F0B5C083EC809318018AE5F6
:1002900080936100109210012881822F807641F0B6
:1002A000CE010E94DA03982F8F3F09F481C087C0E6
:1002B0009A8110922101898181110BC02F7119F44B
:1002C00081E0809321011092220121E231E092E04D
:1002D0006AC0853019F49093350162C0863009F008
:1002E00049C08B81813041F486E790E090933301DF
:1002F0008093320192E13AC0823041F484E590E08B
:10030000909333018093320192E230C08330C9F47C
:10031000911108C08EEB90E09093330180933201ED
:1003200094E024C0913019F488EA90E018C092302B
:10033000E1F488E890E0909333018093320190E2F9
:1003400015C0813241F486E690E0909333018093AA
:10035000320199E00BC0823241F482EC90E090933C
:1003600033018093320196E101C090E080E48093F4
:10037000100125C0883069F0893019F49093370155
:100380000FC08A3049F08B3059F48BE480932401FC
:1003900007C027E331E002C021E231E091E003C071
:1003A00021E231E090E0309333012093320107C025
:1003B000888187FD9E8180E88093100107C08F812E
:1003C000811104C08E81891708F4982F90936000E2
:1003D00010C08091100187FF0CC0CE010E94BF03A6
:1003E0008F3F21F48EE18093610003C08111109250
:1003F0006000109234018091610084FF58C08091A8
:1004000060008F3F09F453C0C82F893008F0C8E05E
:100410008C1B809360009091180188E88927809355
:100420001801CC2391F12091100127FF09C06C2FF6
:1004300089E191E00E94AB03C82F893090F525C077
:10044000809132019091330126FF0BC0A9E1B1E008
:10045000FC012C2F280F34913D9331962E13FBCFA6
:1004600009C0DC01E9E1F1E02C2F2E0F3D91319321
:100470002E13FCCF2FEF2C0F30E02F5F3F4F820F5A
:10048000931F90933301809332016C2F89E191E0A7
:100490000E948602CC5FCC3041F08FEF80936000E9
:1004A00004C08FEF80936000CEE1C093610084E1CF
:1004B00090B39C7031F48150D9F7109235011092AD
:1004C0002F01DF91CF91089585B7826085BF8BB7EB
:1004D00080648BBFE3E2F1E08BE481838AE5808373
:1004E0000895A82FB92F80E090E041E050EA609590
:1004F00030E009C02D9182279795879510F08427C9
:100500009527305EC8F36F5FA8F30895EADF8D93F7
:100510009D930895CF93CFB7CF93DF93C395839BDC
:10052000E9F7839B0BC0839B09C0839B07C0839B18
:1005300005C0839B03C0839B01C08BC06F93C09198
:100540003101DD27C85CDE4F2F9365E5839B03C037
:100550002F916F91E6CF0F931F934F9320E040E1CF
:100560005F9300B30C7003FB27F93F9350E03BE02F
:1005700039C01C7040642F77012F5F5F1EC0406838
:1005800010B31C702F7752501FC0406400B32F77F8
:100590000C70D1F15F5F00C023C0406210B32F77B1
:1005A0001C7091F15F5F00C025C00C701027515086
:1005B00012F45D5F0000115027952C3F10B3C8F670
:1005C0001C700127015027952C3FC8F642274993FC
:1005D00000B30C7010274F73115027952C3FA8F6CD
:1005E0004695469510B31C7079F001270150279568
:1005F0002C3F98F66B5A60F3315000B3B0F600C050
:1006000010E41ABF002719C03B503195C31BD040DE
:1006100010E41ABF0881033C09F10B34F9F0209172
:100620002F011981110F1213EDCF4A81441F093692
:1006300051F10D3211F0013E29F7009336013F913F
:100640005F914F911F910F912F916F91CAB7C6FD86
:1006500065CFDF91CF91CFBFCF9118952091360113
:10066000222369F310913401112391F5343092F172
:100670003093340120933001109131013BE0311B64
:100680003093310127C00091340101300CF50AE5A7
:100690004F7049F43091610034FD1DC0009361003A
:1006A000C8E1D1E01CC03091230134FD14C0009397
:1006B0002301C4E2D1E013C0052710E000C0000010
:1006C00002BB1AC0052710E0221F1DC010E021C088
:1006D0004AE502C032ED432FC4E1D0E032E011B36D
:1006E0001C60939A02B311BB5CE020E865E320FF35
:1006F000052702BB279517951C3FF0F66695B8F7BE
:10070000B1F720FF052702BB279517951C3FD0F6B0
:100710002795179517FF052700001C3F02BBB0F671
:1007200029913A9519F7037F10913501110FC651A0
:10073000D04002BB11F010932F0110E41ABF0860E3
:1007400011B3137F402F437F54E05A95F1F702BB5A
:1007500011BB42BB74CFCF9320911101C62F261736
:1007600008F4C22FBC016F5F7F4F0E941307809176
:1007700011018C1B809311018C2FCF910895CF9381
:1007800020911101222399F0C62F261708F4C22FB9
:10079000FC01618180810E94E206909111019C1B05
:1007A0009093110181E0992319F080E001C081E06C
:1007B000CF910895FC0190819076903249F4818127
:1007C000877F813029F482E0809311018FEF0895B3
:1007D00080E00895DD9A8AE68A95F1F700C0DD98F9
:1007E00008959BB3907F9BBB9BB382958F70982B92
:1007F0009BBB0C94EA03CF93C82FDC9A0E94F103B1
:100800008C2F8295807F0E94F10385EF8A95F1F706
:100810000000CF910895CF93C82FDC980E94F10378
:100820008C2F8295807F0E94F10380EE8A95F1F7EC
:10083000CF91089581E00E940B048FE39FE101971F
:10084000F1F700C0000008958AB38F638ABB8BB3B1
:10085000807C8BBB8FE59AEE0197F1F700C000001A
:1008600080E30E94F1038FE19EE40197F1F700C05D
:1008700000000E94EA038FE99FE00197F1F700C0B2
:1008800000000E94EA038FE99FE00197F1F700C0A2
:10089000000080E20E94F1038FE19EE40197F1F7EE
:1008A00000C0000088E20E940B048CE00E940B0450
:1008B00086E00E940B040C941A0482E00E940B0450
:1008C0008FE39FE10197F1F700C0000008956230C7
:1008D00059F018F4613031F00895633039F0643024
:1008E00039F00895805805C0805403C0805701C076
:1008F00080530C940B04CF93DF93EC0189918823F0
:1009000019F00E94FB03FACFDF91CF910895EF9287
:10091000FF920F931F93CF93DF9300D0CDB7DEB735
:1009200028E0829FC0011124806469837A830E9439
:100930000B046981E62E7A81F72E8701085F1F4F2D
:10094000F70181917F010E94FB03E016F106C1F7D8
:100950000F900F90DF91CF911F910F91FF90EF902B
:10096000089580911601811106C0B19917C081E0E8
:10097000809316010895813021F4B1990FC082E06F
:1009800005C0823031F4B19B09C083E08093160129
:1009900005C0833019F4B1991092160180E00895D2
:1009A00088B38F6088BBB39B02C083E001C080E046
:1009B000B29B02C091E089278093170110925601E3
:1009C0008BE083BF89EF8CBF89B7826089BF0895B0
:1009D0001F920F920FB60F9211248F939F93B39B88
:1009E00002C093E001C090E0B29B02C081E0982772
:1009F00080911701891B80FF09C090931701909186
:100A0000560191508270890F809356019F918F916A
:100A10000F900FBE0F901F901895F894809156017B
:100A2000109256017894089587B3806B87BB88B382
:100A30008F7588BBC49A83E58DB908958FB9779B6C
:100A4000FECF0895D79880E487B987E086B9379AB2
:100A5000369A3699FECF84B195B1089597B18F71CA
:100A6000907E892B87B9369A3699FECF84B195B19D
:100A7000089580E281BB81EC8FBD89E08EBD88EC5A
:100A800090E09BBD8ABD0895CF92DF92EF92FF92D6
:100A9000CF93DF931F92CDB7DEB76B017C0120E0CF
:100AA00030E040E050E40E94140B87FF05C0C12CE9
:100AB000D12CE12C80E4F82E20E030EC4CE453E41F
:100AC000C701B6010E94620C0E94800B872F6983C8
:100AD0000E941E056981862F0E941E05C498C49A33
:100AE0000F90DF91CF91FF90EF90DF90CF9008951E
:100AF0000F931F9380916200811124C00E940D0505
:100B0000682F772767FD7095872F972F0E94AE0B70
:100B10002DEC3CEC4CE45DE30E94620C9B01AC01CB
:100B200060917200709173008091740090917500D3
:100B30000E94B00A609372007093730080937400F7
:100B40009093750020E030E040EA51E4609172003B
:100B50007091730080917400909175000E945E0CFA
:100B6000181664F480E090E0A0EAB1E4809372008B
:100B700090937300A0937400B093750020E030E070
:100B800040E050E4609172007091730080917400B5
:100B9000909175000E94140B87FF0CC080E090E0DC
:100BA000A0E0B0E48093720090937300A09374006F
:100BB000B093750020916E0030916F0040917000ED
:100BC0005091710060917200709173008091740077
:100BD000909175000E94140B882349F162E080E037
:100BE0000E9467046091720070917300809174009C
:100BF0009091750007E511E021E041E00E94C50CED
:100C0000C8010E947B048EE790E00E947B048091E3
:100C1000720090917300A0917400B0917500809360
:100C20006E0090936F00A0937000B09371001F91BD
:100C30000F9108950F931F9380916200811124C03A
:100C40000E940D05682F772767FD7095872F972FD6
:100C50000E94AE0B2AE037ED43EA5BE30E94620C90
:100C60009B01AC0160916A0070916B0080916C00F7
:100C700090916D000E94B00A60936A0070936B00BF
:100C800080936C0090936D0020E030E040E050E4F1
:100C900060916A0070916B0080916C0090916D0082
:100CA0000E945E0C181664F480E090E0A0E0B0E4CE
:100CB00080936A0090936B00A0936C00B0936D00DA
:100CC0002AE037ED43E25CE360916A0070916B00CB
:100CD00080916C0090916D000E94140B87FF0CC0F6
:100CE0008AE097EDA3E2BCE380936A0090936B00E7
:100CF000A0936C00B0936D00209166003091670066
:100D0000409168005091690060916A0070916B0099
:100D100080916C0090916D000E94140B882349F122
:100D200062E080E00E94670460916A0070916B004D
:100D300080916C0090916D0007E511E022E041E0A8
:100D40000E94C50CC8010E947B0484E890E00E94C8
:100D50007B0480916A0090916B00A0916C00B0912F
:100D60006D008093660090936700A0936800B09335
:100D700069001F910F91089584B3811114BA65B36E
:100D800070E080E090E00E94AE0B21EA30EA40EA99
:100D90005DE30E94620C6093720070937300809315
:100DA000740090937500089584B38F3F11F08FEF16
:100DB00084BB86E00E942E0596958795969587952B
:100DC00085BB08959091130191112CC0882319F0CF
:100DD0008130A9F0089570E080E090E00E94AE0BB1
:100DE0002DEC3CEC4CEC5DE30E94620C60937200D5
:100DF000709373008093740090937500089570E071
:100E000080E090E00E94AE0B2AE037ED43E25CE325
:100E10000E94620C60936A0070936B0080936C0078
:100E200090936D0008950F931F93CF93DF938C01E0
:100E3000EB0120E030E040E251E460916B01709101
:100E40006C0180916D0190916E010E94620C0E9474
:100E5000800BF801608320E030E048EC52E46091C0
:100E60004E0170914F0180915001909151010E946B
:100E7000620C0E94800B6883DF91CF911F910F91CC
:100E8000089580916200811107C00E940D05909124
:100E90006500890F8093650080916500893C18F09A
:100EA00088EC8093650080916500823018F482E0C0
:100EB0008093650090911501809165009817F1F07D
:100EC00062E080E00E9467048091650086954AE0B8
:100ED00067E571E090E00E94E60C87E591E00E94F2
:100EE0007B048AE890E00E947B0420916500822FB9
:100EF00090E0C2969BBD8ABD209315010895809114
:100F00006200811107C00E940D0590911301890FA5
:100F1000809313018091130189301CF088E0809345
:100F200013018091130187FD109213018091130129
:100F300090916300891709F44FC0809363008595F1
:100F4000823029F12CF4882341F0813069F0089532
:100F5000833041F1843071F1089562E080E00E94B5
:100F6000670481E990E024C062E080E00E946704A9
:100F70008DE990E00E947B040E94BC0680911201E2
:100F8000882351F10E942F0A10921201089562E005
:100F900080E00E94670489EA90E00E947B040E943E
:100FA000D406ECCF62E080E00E94670485EB90E01D
:100FB0000C947B0462E080E00E94670481EC90E086
:100FC0000E947B0480911201811106C080E50E947D
:100FD000230A81E08093120108958F929F92AF922D
:100FE000BF92CF92DF92EF92FF9280904E0190904D
:100FF0004F01A0905001B0905101C0906A00D09074
:101000006B00E0906C00F0906D00A7019601C501A7
:10101000B4010E945E0C1816C4F4A50194016091FD
:101020006B0170916C0180916D0190916E010E9435
:10103000180BA70196010E94620C609372007093D6
:1010400073008093740090937500609172007091AA
:1010500073008091740090917500FF90EF90DF9085
:10106000CF90BF90AF909F908F900C9444058F923B
:101070009F92AF92BF92CF92DF92EF92FF920F9327
:101080001F9361E08BE00E94670486E00E942E05BA
:101090009695879596958795BC0180E090E00E9493
:1010A000AC0B2DEC3CEC4CEC5DE30E94620C6B0154
:1010B0007C0160936B0170936C0180936D01909340
:1010C0006E0180907A0090907B00A0907C00B090A0
:1010D0007D002DEC3CEC4CEC5DE3C501B4010E94BD
:1010E000B00A9B01AC01C701B6010E945E0C181644
:1010F00084F02DEC3CEC4CEC5DE3C501B4010E94A6
:10110000AF0A9B01AC01C701B6010E94140B87FF17
:101110002BC007E511E021E041E0C701B6010E94C4
:10112000C50CC8010E947B048DEC90E00E947B04FA
:10113000C0906B01D0906C01E0906D01F0906E0159
:1011400020E030E040E251E4C701B6010E94620CA9
:101150000E94800B60935401C0927A00D0927B0071
:10116000E0927C00F0927D0062E08BE00E946704D8
:1011700087E00E942E059695879596958795BC01E8
:1011800080E090E00E94AC0B2AE037ED43E25CE3A4
:101190000E94620C6B017C0160934E0170934F01C1
:1011A00080935001909351012DEC3CEC4CE45DE3B5
:1011B000609176007091770080917800909179002D
:1011C0000E94B00A9B01AC01C701B6010E945E0CEF
:1011D0001816B4F02DEC3CEC4CE45DE360917A0021
:1011E00070917B0080917C0090917D000E94AF0AFD
:1011F0009B01AC01C701B6010E94140B87FF2BC0F5
:1012000007E511E022E041E0C701B6010E94C50CEC
:10121000C8010E947B0484ED90E00E947B04C09092
:101220004E01D0904F01E0905001F090510120E02C
:1012300030E048EC52E4C701B6010E94620C0E9403
:10124000800B60935501C0927600D0927700E092B7
:101250007800F09279008091130185958430C1F572
:101260006091520170E080E090E00E94AE0B2DECA6
:101270003CEC4CEC5DE30E94620C0E94800B70E041
:1012800080E090E00E94AC0B60937200709373005A
:1012900080937400909375006091530170E080E03A
:1012A00090E00E94AE0B2AE037ED43E25CE30E943F
:1012B000620C0E94800B70E080E090E00E94AC0B1A
:1012C00060936A0070936B0080936C0090936D0044
:1012D0001F910F91FF90EF90DF90CF90BF90AF9054
:1012E0009F908F9008950E9424040E945D048BEDCE
:1012F00090E00E947B040E9414050E9422050E9437
:1013000039050E94D0040E941A0460E070E080E079
:1013100090E40C9444050E94B104882331F090912C
:10132000620081E0892780936200809162008823B7
:1013300009F473C00E940D0590911401890F873044
:101340000CF086E0809314018091140187FD1092C7
:1013500014018091140190916400891709F45DC013
:10136000809364008595813081F1FCF4811155C032
:101370000E945D0483EE90E00E947B0420E030E058
:1013800040E85FE360916E0070916F0080917000A3
:10139000909171000E94B00A60936E0070936F008C
:1013A000809370009093710038C0823059F183307F
:1013B000A1F50E945D0484E091E00E947B0480918D
:1013C00015018F5F8093150128C00E945D048EEE89
:1013D00090E00E947B0420E030E040E85FE3609111
:1013E00066007091670080916800909169000E948A
:1013F000B00A6093660070936700809368009093D2
:1014000069000BC00E945D0489EF90E00E947B049C
:10141000809163008F5F80936300809114018595B4
:10142000813059F01CF4882331F00895823039F06E
:10143000833039F008950C9478050C941A060C94B6
:101440007F070C94410782B986B78F7D86BF86B728
:10145000856486BF8FEF80936F017894089586B777
:101460008A7B86BF08951F920F920FB60F921124A8
:101470008F939F93EF93FF9381B1887F803AF1F12F
:1014800028F4803641F0803861F03AC0883AF1F0B3
:10149000883BE1F035C085EC86BF8FEF80936F010C
:1014A00031C083B190916F019F3F29F4853010F1D5
:1014B00010926F0123C090916F019530C0F4E091BC
:1014C0006F01F0E0EE5AFE4F808311C080916F01F2
:1014D0008F3F11F410926F0180916F01853068F495
:1014E000E0916F01F0E0EE5AFE4F808183B9809168
:1014F0006F018F5F80936F0101C013B885EC01C04D
:1015000085ED86BFFF91EF919F918F910F900FBE58
:101510000F901F9018959EE088E10FB6F894A8955B
:1015200081BD0FBE91BD0E9464028B9A80E0815004
:1015300041F0A895EFE9FFE03197F1F700C0000016
:10154000F6CF8B9878940E947309A8950E942D017C
:101550000E948B090E9437080E94ED07F6CF505871
:10156000BB27AA270ED070C161D130F066D120F020
:1015700031F49F3F11F41EF456C10EF4E095E7FBE1
:101580004CC1E92F72D180F3BA1762077307840741
:10159000950718F071F49EF58AC10EF4E0950B2EB4
:1015A000BA2FA02D0B01B90190010C01CA01A001B5
:1015B0001124FF27591B99F0593F50F4503E68F110
:1015C0001A16F040A22F232F342F4427585FF3CF51
:1015D000469537952795A795F0405395C9F77EF422
:1015E0001F16BA0B620B730B840BBAF09150A1F06B
:1015F000FF0FBB1F661F771F881FC2F70EC0BA0FF1
:10160000621F731F841F48F4879577956795B79578
:10161000F7959E3F08F0B3CF9395880F08F0992770
:10162000EE0F979587950895D4D008F481E008953A
:101630000CD00AC102D140F0F9D030F021F45F3F64
:1016400019F0EBC0511134C1EEC00FD198F39923BA
:10165000C9F35523B1F3951B550BBB27AA27621776
:101660007307840738F09F5F5F4F220F331F441FBB
:10167000AA1FA9F333D00E2E3AF0E0E830D09150F3
:101680005040E695001CCAF729D0FE2F27D0660FE0
:10169000771F881FBB1F261737074807AB07B0E81F
:1016A00009F0BB0B802DBF01FF2793585F4F2AF035
:1016B0009E3F510568F0B1C0FBC05F3FECF3983E20
:1016C000DCF3869577956795B795F7959F5FC9F792
:1016D000880F911D9695879597F90895E1E0660F1B
:1016E000771F881FBB1F621773078407BA0720F094
:1016F000621B730B840BBA0BEE1F88F7E0950895FD
:10170000BCD088F09F5790F0B92F9927B751A0F01F
:10171000D1F0660F771F881F991F1AF0BA95C9F785
:1017200012C0B13081F0C3D0B1E00895C0C0672FBE
:10173000782F8827B85F39F0B93FCCF38695779535
:101740006795B395D9F73EF490958095709561951E
:101750007F4F8F4F9F4F0895E89409C097FB3EF449
:1017600090958095709561957F4F8F4F9F4F9923EE
:10177000A9F0F92F96E9BB279395F695879577956C
:101780006795B795F111F8CFFAF4BB0F11F460FF2C
:101790001BC06F5F7F4F8F4F9F4F16C0882311F084
:1017A00096E911C0772321F09EE8872F762F05C098
:1017B000662371F096E8862F70E060E02AF09A9533
:1017C000660F771F881FDAF7880F9695879597F928
:1017D0000895990F0008550FAA0BE0E8FEEF1616C2
:1017E0001706E807F907C0F012161306E407F50715
:1017F00098F0621B730B840B950B39F40A2661F089
:10180000232B242B252B21F408950A2609F4A1402B
:10181000A6958FEF811D811D089597F99F6780E838
:1018200070E060E008959FEF80EC089500240A9432
:101830001616170618060906089500240A941216AB
:101840001306140605060895092E0394000C11F4DE
:10185000882352F0BB0F40F4BF2B11F460FF04C08B
:101860006F5F7F4F8F4F9F4F089557FD9058440FE4
:10187000551F59F05F3F71F04795880F97FB991FEF
:1018800061F09F3F79F087950895121613061406AC
:10189000551FF2CF4695F1DF08C016161706180639
:1018A000991FF1CF86957105610508940895E89414
:1018B000BB2766277727CB0197F908958ADF08F4BD
:1018C0008FEF08950BD0C0CFB1DF28F0B6DF18F04E
:1018D000952309F0A2CFA7CF1124EACFC6DFA0F34A
:1018E000959FD1F3950F50E0551F629FF001729FB5
:1018F000BB27F00DB11D639FAA27F00DB11DAA1FD4
:10190000649F6627B00DA11D661F829F2227B00D20
:10191000A11D621F739FB00DA11D621F839FA00DAB
:10192000611D221F749F3327A00D611D231F849FFB
:10193000600D211D822F762F6A2F11249F57504052
:101940008AF0E1F088234AF0EE0FFF1FBB1F661FED
:10195000771F881F91505040A9F79E3F510570F0A6
:101960005CCFA6CF5F3FECF3983EDCF3869577958E
:101970006795B795F795E7959F5FC1F7FE2B880FA1
:10198000911D9695879597F90895EF920F931F9360
:10199000CF93DF93E80147FD02C034E001C034E19A
:1019A000E42FFF27E7FDF095F7FF03C0F195E195E0
:1019B000F109E32E022F2E2FAE010E940B0DCE0156
:1019C000DF91CF911F910F91EF900895BB274A307F
:1019D00031F4992322F4BDE2909581959F4F0C94A8
:1019E000F20CBB27FB015527AA27880F991FAA1FB6
:1019F000A41710F0A41B83955051B9F7A05DAA332A
:101A000008F0A95DA193009779F7B111B1931192F4
:101A1000CB010C94710F4F925F926F927F929F92C5
:101A2000AF92BF92CF92DF92EF92FF920F931F93EC
:101A3000CF93DF93CDB7DEB729970FB6F894DEBF0B
:101A40000FBECDBF6A01122FB02E2BE3201720F05E
:101A5000FF24F394F00E02C0BCE3FB2E0F2D27E011
:101A6000AE014F5F5F4F0E94990EAC018981982FA4
:101A70009970913031F0E1FC06C0E0FE06C090E2C2
:101A800005C09DE203C09BE201C090E0EE2DE07135
:101A900083FF3CC0911102C083E001C084E0811744
:101AA00018F4212F281B01C020E0E1110BC0F60122
:101AB000822F30E2882319F031938150FBCFC20E80
:101AC000D11C20E0992329F0D6019C93F601319690
:101AD0006F01C6010396E2FE0AC03EE4D6013C93C4
:101AE00041E411964C93119712963C9306C03EE642
:101AF000F601308341E641833283FC01322F40E21C
:101B0000332309F442C041933150FACF82FF44C0DD
:101B1000911102C083E001C084E0811718F4212FE5
:101B2000281B01C020E0E1110BC0F601822F30E23A
:101B3000882319F031938150FBCFC20ED11C20E0D5
:101B4000992329F0D6019C93F60131966F01C601C5
:101B50000396E2FE0BC039E4D6013C933EE41196B5
:101B60003C93119736E412963C9307C039E6F60190
:101B700030833EE6318336E63283FC01322F40E289
:101B8000332319F041933150FBCFFC01E20FF11DDB
:101B900010828EEF9FEFB7C0F1E0911101C0F0E02D
:101BA0006F2F70E01416150624F49A012F5F3F4F33
:101BB00002C021E030E0260F371FBB2029F06B2D3B
:101BC00070E06F5F7F4F02C060E070E0260F371F4C
:101BD000612F70E0261737071CF4121B212F01C05C
:101BE00020E03E2D387159F4D601322F60E23323C4
:101BF00019F06D933150FBCFC20ED11C20E0FF23B2
:101C000031F0D6019C93B6016F5F7F4F6B01E111FC
:101C10000BC0F601922F30E3992319F031939150C4
:101C2000FBCFC20ED11C20E09F2D940F3A81782F5C
:101C30007071A72E84FF03C0313309F49150191637
:101C400024F4993018F098E001C091E0E42F852F3A
:101C500057FF02C0E0E080E06E2F782FE0E0F0E078
:101C6000AEE29A2E3A01691A71082A01461A570AF9
:101C70000B2D10E01195019511096F3F8FEF78073B
:101C800029F4D6019C92C60101966C0146175707AC
:101C900084F0661677066CF47F01E40CF51CA1E075
:101CA000B0E0AC0FBD1FEA0EFB1ED7011196BC9031
:101CB00002C090E3B92E615071093196C6010196B8
:101CC0007C016017710724F0D601BC926C01D5CF5E
:101CD0006417750741F4363320F4353321F4A1102D
:101CE00002C081E3B82EF601B082F701822F90E2A4
:101CF000882319F091938150FBCFF701E20FF11D7A
:101D0000108280E090E029960FB6F894DEBF0FBEF7
:101D1000CDBFDF91CF911F910F91FF90EF90DF909A
:101D2000CF90BF90AF909F907F906F905F904F90BB
:101D30000895283008F027E03327DA01990F311D84
:101D400087FD916000966105710539F432602E5F60
:101D50003D9330E32A95E1F708959F3F30F08038B6
:101D60007105610509F03C5F3C5F3D93913008F0DF
:101D70008068911DDF93CF931F930F93FF92EF9293
:101D8000192F987F9695E92F96959695E90FFF273D
:101D9000EE5CFE4F99273327EE24FF24A701E701CD
:101DA00005900894079428F4360FE71EF81E491F83
:101DB000511D660F771F881F991F0694A1F7059084
:101DC000079428F4E70EF81E491F561FC11D770F10
:101DD000881F991F661F0694A1F70590079428F4A1
:101DE000F80E491F561FC71FD11D880F991F661F68
:101DF000771F0694A1F70590079420F4490F561F0A
:101E0000C71FD81F990F661F771F881F0694A9F751
:101E100084911095177041F0D695C79557954795C1
:101E2000F794E7941A95C1F7E8EDF0E068941590FF
:101E3000159135916591959105907FE27395E11823
:101E4000F10A430B560BC90BD009C0F7E10CF11E88
:101E5000431F561FC91FD01D7EF4703311F48A959D
:101E6000E6CFE894015030F0080F0AF4002702177B
:101E700008F4202F2395022F7A3328F079E37D93FD
:101E80002A95E9F710C07D932A9589F606949795CF
:101E90006795379517951794E118F10A430B560B80
:101EA000C90BD00998F023957E9173957A3308F089
:101EB00070E37C932013B8F77E9170617D9330F0CE
:101EC000839571E37D9370E32A95E1F71124EF90F8
:101ED000FF900F911F91CF91DF91992787FD9095EA
:101EE0000895DC01FC01672F71917723E1F73297A8
:101EF00004C07C916D9370836291AE17BF07C8F3E5
:061F00000895F894FFCFE4
:101F0600FF5A01FEFE96000000C0000000400000DF
:101F160000C000000040000000C0000000C05620C5
:101F260020202000412020202000252020202020C5
:101F360000555342202020202020202000506F7280
:101F46007420696E2020202000506F7274206F75F7
:101F560074202020004D616E75656C6C2020202059
:101F66000049324320202020202020200056202017
:101F76002020200041202020202000496E69742E58
:101F86002E2E005370616E6E756E672020004D61B7
:101F9600782E205374726F6D0045696E67616E67A7
:101FA600202020004B6F6E74726173742020000035
:00000001FF
