:100000000C9464000C9405020C9481000C94810003
:100010000C9481000C9481000C9481000C9481005C
:100020000C9481000C9481000C9481000C9481004C
:100030000C9481000C9481000C9481000C9481003C
:100040000C9481000C9481000C9481000C94310478
:100050000C94810009022200010100C00A09040079
:100060000001030000000921010100012216000720
:100070000581030800641201100100000008C01689
:10008000DF05000101020001140344006100740057
:100090006100530074006F007200650012036F006E
:1000A00062006400650076002E00610074000403A5
:1000B00009040600FF0901A101150026FF007508CB
:1000C00095800900B20201C011241FBECFE5D4E023
:1000D000DEBFCDBF10E0A0E6B0E0E0EFFCE002C084
:1000E00005900D92AE36B107D9F710E0AEE6B0E05C
:1000F00001C01D92A93AB107E1F70E94F9040C94DE
:1001000076060C940000CF93C62F20917C0024FF2C
:1001100007C030917D0028E8232720937D0003C08D
:100120002AE520937C00DC01EEE7F0E09C2F9E0F97
:100130008D918193892F8E1B1816D4F36C2F8EE727
:1001400090E00E940102CC5FC0937C00CF910895A3
:10015000CF93DF9360918D00635067FDC7C080919E
:100160008A00CCE0D0E0C81BD109CF56DF4F809188
:1001700089008D3209F0A8C0683009F0B5C083EC61
:10018000809371008AE58093610010926E0028814F
:10019000822F807641F0CE010E944203982F8F3F3C
:1001A00009F481C087C09A8110927A0089818111F7
:1001B0000BC02F7119F481E080937A0010927B00BC
:1001C0002AE730E092E06AC0853019F490938E00FF
:1001D00062C0863009F049C08B81813019F486E70E
:1001E00090E01AC0823041F484E590E090938C0056
:1001F00080938B0092E235C08330F1F4911108C0F6
:100200008EEA90E090938C0080938B0094E029C05C
:10021000913041F48CE990E090938C0080938B00B6
:1002200092E11FC09230E1F488E890E090938C0056
:1002300080938B0094E115C0813241F486E690E012
:1002400090938C0080938B0099E00BC0823241F434
:1002500082EB90E090938C0080938B0096E101C03C
:1002600090E080E480936E0025C0883069F089308A
:1002700019F4909390000FC08A3049F08B3059F4F4
:100280008BE480937D0007C020E930E002C02AE7BC
:1002900030E091E003C02AE730E090E030938C003A
:1002A00020938B0007C0888187FD9E8180E8809322
:1002B0006E0007C08F81811104C08E81891708F4F8
:1002C000982F9093600010C080916E0087FF0CC043
:1002D000CE010E9430038F3F21F48EE180936100B4
:1002E00003C081111092600010928D008091610016
:1002F00084FF58C0809160008F3F09F453C0C82F1D
:10030000893008F0C8E08C1B8093600090917100E8
:1003100088E8892780937100CC2391F120916E00A9
:1003200027FF09C06C2F82E790E00E942603C82FA8
:10033000893090F525C080918B0090918C0026FF2C
:100340000BC0A2E7B0E0FC012C2F280F34913D93A5
:1003500031962E13FBCF09C0DC01E2E7F0E02C2F31
:100360002E0F3D9131932E13FCCF2FEF2C0F30E049
:100370002F5F3F4F820F931F90938C0080938B00D1
:100380006C2F82E790E00E940102CC5FCC3041F0FC
:100390008FEF8093600004C08FEF80936000CEE108
:1003A000C093610084E190B39C7031F48150D9F71F
:1003B00010928E0010928800DF91CF91089585B73A
:1003C000826085BF8BB780648BBFECE7F0E08BE485
:1003D00081838AE580830895A82FB92F80E090E07B
:1003E00041E050EA609530E009C02D918227979551
:1003F000879510F084279527305EC8F36F5FA8F3C8
:100400000895EADF8D939D930895CF93CFB7CF934F
:10041000DF93C395839BE9F7839B0BC0839B09C044
:10042000839B07C0839B05C0839B03C0839B01C044
:100430008BC06F93C0918A00DD27CF56DF4F2F937B
:1004400065E5839B03C02F916F91E6CF0F931F93B8
:100450004F9320E040E15F9300B30C7003FB27F95A
:100460003F9350E03BE039C01C7040642F77012F70
:100470005F5F1EC0406810B31C702F7752501FC0C2
:10048000406400B32F770C70D1F15F5F00C023C0D0
:10049000406210B32F771C7091F15F5F00C025C0E0
:1004A0000C701027515012F45D5F00001150279519
:1004B0002C3F10B3C8F61C700127015027952C3F24
:1004C000C8F64227499300B30C7010274F731150A0
:1004D00027952C3FA8F64695469510B31C7079F0E9
:1004E0000127015027952C3F98F66B5A60F3315045
:1004F00000B3B0F600C010E41ABF002719C03B508B
:100500003195C31BD04010E41ABF0881033C09F1A8
:100510000B34F9F0209188001981110F1213EDCFDF
:100520004A81441F093651F10D3211F0013E29F77D
:1005300000938F003F915F914F911F910F912F91E9
:100540006F91CAB7C6FD65CFDF91CF91CFBFCF9175
:10055000189520918F00222369F310918D001123AB
:1005600091F5343092F130938D00209389001091F1
:100570008A003BE0311B30938A0027C000918D0038
:1005800001300CF50AE54F7049F43091610034FDFB
:100590001DC000936100C1E7D0E01CC030917C0019
:1005A00034FD14C000937C00CDE7D0E013C00527D4
:1005B00010E000C0000002BB1AC0052710E0221F97
:1005C0001DC010E021C04AE502C032ED432FC4E156
:1005D000D0E032E011B31C60939A02B311BB5CE02F
:1005E00020E865E320FF052702BB279517951C3FF0
:1005F000F0F66695B8F7B1F720FF052702BB2795FF
:1006000017951C3FD0F62795179517FF0527000073
:100610001C3F02BBB0F629913A9519F7037F109160
:100620008E00110FC651D04002BB11F0109388000C
:1006300010E41ABF086011B3137F402F437F54E0CA
:100640005A95F1F702BB11BB42BB74CF90916F007A
:10065000862F961708F4892F981B90936F000895A2
:1006600080916F00882361F0861708F4682F982F17
:10067000961B90936F0081E0992319F080E0089514
:1006800081E00895FC0190819076903249F4818157
:10069000877F813029F482E080936F008FEF089587
:1006A00080E00895DD9A8AE68A95F1F700C0DD982A
:1006B00008959BB3907F9BBB9BB382958F70982BC3
:1006C0009BBB0C945203CF93C82FDC9A0E94590312
:1006D0008C2F8295807F0E94590385EF8A95F1F7D0
:1006E0000000CF910895CF93C82FDC980E94590342
:1006F0008C2F8295807F0E94590380EE8A95F1F7B6
:10070000CF91089581E00E9473038FE39FE10197E9
:10071000F1F700C0000008958AB38F638ABB8BB3E2
:10072000807C8BBB8FE59AEE0197F1F700C000004B
:1007300080E30E9459038FE19EE40197F1F700C026
:1007400000000E9452038FE99FE00197F1F700C07B
:1007500000000E9452038FE99FE00197F1F700C06B
:10076000000080E20E9459038FE19EE40197F1F7B7
:1007700000C0000088E20E9473038CE00E947303B3
:1007800086E00E9473030C94820382E00E9473034C
:100790008FE39FE10197F1F700C0000008956230F8
:1007A00059F018F4613031F00895633039F0643055
:1007B00039F00895805805C0805403C0805701C0A7
:1007C00080530C947303CF93DF93EC0189918823BA
:1007D00019F00E946303FACFDF91CF910895EF9251
:1007E000FF920F931F93CF93DF9300D0CDB7DEB767
:1007F00028E0829FC0011124806469837A830E946B
:1008000073036981E62E7A81F72E8701085F1F4FF7
:10081000F70181917F010E946303E016F106C1F7A1
:100820000F900F90DF91CF911F910F91FF90EF905C
:10083000089588B38F6088BBB39B02C083E001C07A
:1008400080E0B29B02C091E08927809370001092F3
:10085000A8008BE083BF89EF8CBF89B7826089BF16
:1008600008951F920F920FB60F9211248F939F93AA
:10087000B39B02C093E001C090E0B29B02C081E054
:10088000982780917000891B80FF09C090937000A9
:100890009091A80091508270890F8093A8009F9139
:1008A0008F910F900FBE0F901F901895F894809124
:1008B000A8001092A8007894089587B3806B87BB36
:1008C00088B38F7588BBC49A83E58DB98FE99FE0A3
:1008D0000197F1F700C00000C498C49A08958FB939
:1008E000779BFECF089580E487B983E086B9379A75
:1008F000369A3699FECF84B195B1089597B18F712C
:10090000907E892B87B9369A3699FECF64B175B13E
:1009100080E090E00E9445052EEE30E644EC5CE37A
:100920000E94AB050E941905CB0108950E9419048D
:100930000E948C030E945D040E9473040E94C50300
:1009400082E690E00E94E3030C948203CF93DF934E
:10095000CDB7DEB764970FB6F894DEBF0FBECDBF3C
:100960000E9456049091A700890F8093A7000E94CF
:10097000C5038091A7004AE050E0BE016F5F7F4F42
:1009800090E00E943606CE0101960E94E3038BE6BA
:1009900090E00E94E303C49880E00E946F0480917D
:1009A000A7000E946F04C49A8FE39CE90197F1F7B6
:1009B00000C0000062E080E00E94CF0386E00E9459
:1009C0007E044AE050E0BE016F5F7F4F0E94360612
:1009D000CE0101960E94E3038AE690E00E94E303C1
:1009E00064960FB6F894DEBF0FBECDBFDF91CF91F6
:1009F00008959EE088E10FB6F894A89581BD0FBEDA
:100A000091BD0E94DF018B9A80E0815041F0A89552
:100A1000EFE9FFE03197F1F700C00000F6CF8B98C7
:100A200078940E949604A8950E94A8000E94A604AB
:100A3000FACF70D088F09F5790F0B92F9927B7510F
:100A4000A0F0D1F0660F771F881F991F1AF0BA9592
:100A5000C9F712C0B13081F077D0B1E0089574C009
:100A6000672F782F8827B85F39F0B93FCCF3869588
:100A700077956795B395D9F73EF4909580957095E5
:100A800061957F4F8F4F9F4F0895E89409C097FB62
:100A90003EF490958095709561957F4F8F4F9F4F55
:100AA0009923A9F0F92F96E9BB279395F695879599
:100AB00077956795B795F111F8CFFAF4BB0F11F45C
:100AC00060FF1BC06F5F7F4F8F4F9F4F16C0882303
:100AD00011F096E911C0772321F09EE8872F762F39
:100AE00005C0662371F096E8862F70E060E02AF07A
:100AF0009A95660F771F881FDAF7880F9695879566
:100B000097F9089557FD9058440F551F59F05F3FCE
:100B100071F04795880F97FB991F61F09F3F79F01F
:100B200087950895121613061406551FF2CF4695A1
:100B3000F1DF08C0161617061806991FF1CF869523
:100B40007105610508940895E894BB276627772707
:100B5000CB0197F908950BD078C069D028F06ED0FA
:100B600018F0952309F05AC05FC01124EECFCADFF8
:100B7000A0F3959FD1F3950F50E0551F629FF001B0
:100B8000729FBB27F00DB11D639FAA27F00DB11D09
:100B9000AA1F649F6627B00DA11D661F829F222792
:100BA000B00DA11D621F739FB00DA11D621F839F19
:100BB000A00D611D221F749F3327A00D611D231FEF
:100BC000849F600D211D822F762F6A2F11249F573D
:100BD00050408AF0E1F088234AF0EE0FFF1FBB1F60
:100BE000661F771F881F91505040A9F79E3F5105FF
:100BF00070F014C0AACF5F3FECF3983EDCF386950B
:100C000077956795B795F795E7959F5FC1F7FE2BA9
:100C1000880F911D9695879597F9089597F99F6785
:100C200080E870E060E008959FEF80EC0895002474
:100C30000A941616170618060906089500240A9441
:100C400012161306140605060895092E0394000CC7
:100C500011F4882352F0BB0F40F4BF2B11F460FF56
:100C600004C06F5F7F4F8F4F9F4F089545325105EE
:100C700020F4423010F00C944106FB011082CB01AD
:100C80000895BB274A3031F4992322F4BDE29095B0
:100C900081959F4F0C944D06BB27FB015527AA2732
:100CA000880F991FAA1FA41710F0A41B83955051F9
:100CB000B9F7A05DAA3308F0A95DA193009779F771
:100CC000B111B1931192CB010C946606DC01FC01C9
:100CD000672F71917723E1F7329704C07C916D9370
:100CE00070836291AE17BF07C8F30895F894FFCFE1
:0E0CF000FF5A496E69742E2E2E00202020001F
:00000001FF
